:020000040800F2
:10400000D8340020E1BB000891BB000893BB000836
:1040100095BB000897BB000899BB00080000000092
:104020000000000000000000000000009BBB000832
:104030009DBB0008000000009FBB0008A1BB00085A
:1040400021BC000825BC000829BC00082DBC0008C4
:1040500031BC000835BC000839BC00083DBC000874
:1040600041BC000845BC000849BC00084DBC000824
:1040700051BC000855BC000859BC00085DBC0008D4
:1040800061BC000865BC000869BC00086DBC000884
:10409000A3BB000875BC000879BC00087DBC000803
:1040A00081BC000885BC000889BC00088DBC0008E4
:1040B000A7BB0008ABBB000899BC00089DBC00086A
:1040C000A1BC0008A5BC0008A9BC0008ADBC000844
:1040D000B1BC0008B5BC0008B9BC0008BDBC0008F4
:1040E000C1BC0008C5BC0008C9BC0008CDBC0008A4
:1040F000D1BC0008D5BC0008D9BC0008DDBC000854
:10410000E1BC0008E5BC0008E9BC0008EDBC000803
:10411000F1BC0008F5BC0008F9BC0008FDBC0008B3
:1041200001BD000805BD000809BD00080DBD00085F
:10413000DFF8380B40697047DFF8301B4861704783
:10414000DFF8281B08707047DFF8200B00787047F5
:1041500038B901EBC100052190FBF1F000F5A0702A
:1041600006E001EB8100A0F5C860092190FBF1F0A9
:1041700000B2704710B5DFF8F84A00206060A06117
:1041800001F0D5FE08B9082005E0042807DB01206E
:1041900001F0C7FE0620BDE8104002F047B801203C
:1041A00002F044F8DFF8900EC069606110BD30B5D0
:1041B00083B004460D460622002100A802F034FA1E
:1041C0002A4640A100A802F039FADFF8A02A1278A6
:1041D00005F1090100A86AB9642D07DA0A2D03DA8E
:1041E000002D05D5002901D443210CE0432113E023
:1041F00043210EE0642D09DA0A2D03DA002D07D5DC
:10420000002903D445218170202105E0452103E0E8
:104210004521417020218170C170204600A901F024
:10422000B5F9DFF84C0A1421016037BD70B5DFF82D
:104230000C4E0FF29401607882B020B900911023E7
:10424000602200210BE0012802D16068009002E0AA
:10425000022808D10091102360220021002002F0E2
:1042600051FA606025E0032823D10025542616E08A
:104270001C200FF2F41100FB051060600E21F01DF0
:1042800002F067FA6068009010230E220021F0B25D
:1042900002F038FA6060F61F0A2002F0EFFB207887
:1042A0008642E5DA0E306D1C2070062DDEDB002024
:1042B00020706078401CC0B2042808BF00206070E5
:1042C00073BD000025640000000000000000000035
:1042D00000000000000000000000000000000000DE
:1042E00000000000000000000000000000000000CE
:1042F000000000000000008898BFBF988800000000
:1043000000808080808080000000000000000000AD
:10431000000000000000000000000000000000009D
:10432000000000000000000000206060606060602D
:10433000909090909090909090909090909090907D
:1043400090909090909090909060606060606060BD
:104350006070F888848282838383838383828282ED
:10436000828383838383838282828282868484841D
:104370008484848484848484848484848484828201
:10438000828282828282FE00000000000000000023
:10439000000000000000000000000000000000001D
:1043A000000000000000000000000000000000000D
:1043B0000000000000000090B0FEFEB09000000081
:1043C00000808080808080000000000000000000ED
:1043D00000000000000000000000000000000000DD
:1043E000000000000000000000206060606060606D
:1043F00090909090909090909090909090909090BD
:1044000090909090909090909060606060606060FC
:104410006070F8888482828383838383838282822C
:10442000828383838383838282828282868484845C
:104430008484848484848484848484848484828240
:10444000828282828282FE0000F0F00000F0F0F0B2
:104450000000FCF8F0E0C080000F0F00000F0F0F0D
:1044600000003F1F0F0703010000000000000000D4
:10447000000000000000000000000000000000003C
:10448000000000000001FFFF01010101010181C6E0
:104490007E380080FFFF81810101010100000000E2
:1044A00000202020E0E0008040402060C0400080EC
:1044B0008080FFFF8180808000000000000000807D
:1044C0004040202020404080000000003F7F448486
:1044D000848484848447270000000080404020209A
:1044E000204040C00000000020C3828684848C8C61
:1044F000887830000000008040402020204040C0EC
:104500000000000020C3828684848C8C8878300070
:10451000000000000000008080C0602010180C86A1
:10452000E0E0E0ECFCF2F3F1F0F8ECE4E4E2E301CB
:1045300000000000000000000080C0402030180C87
:10454000C0C0C0D8F8E4E6E3E1F1D8C8C8C4C603E7
:10455000FCFCFC00000000C038262501010101011F
:10456000010101027F7F7F0609090909090939480C
:104570004848483010080804FCFC00000000C0381F
:104580002625010101010101010102027F7F0609C7
:10459000090909090939484848483010080804043D
:1045A00000000000000000008080C06030180C8611
:1045B00000E0E0ECF4F6F6FBF5E8E8E4E2E2E10026
:1045C0000000000000000000000080C06030180CF7
:1045D00000C0C0D8E8ECECF6EBD1D1C8C4C4C2012D
:1045E000FEFEFE8040406058540202020202028435
:1045F0003F3F3F00010101010107050506020100DF
:10460000FEFE80404060585402020202020284848E
:104610003F3F0001010101010705050602010000FD
:10462000F8B58578A5F130060C460A2E3CBFA5F1F9
:104630003002D2B2C578A5F130060A2E3CBFA5F1F2
:104640003003DBB20078A0F130050A2D3CBFA0F1A9
:104650003001C9B20026DFF8D85C0FF27C071820C1
:1046600000FB016C06EB050E1CF807C08EF860C05D
:1046700000FB026C1CF807C08EF890C000FB036CB6
:10468000761C1CF807C08EF8A8C0182EE8DB10278F
:1046900044B902230C220821284600F0ADFD05F1A3
:1046A000D80000E02846002600900C2202FB06F00D
:1046B000102300F09BFF761C082EF5DB7F1EE7D150
:1046C0004CB94FF47A7002F0D9F902F08BF8BDE8DA
:1046D000F14001F09EBDF1BD00E010080810E000BF
:1046E00000000000000F102020100F00000000004C
:1046F000001010F800000000000000000020203F23
:1047000020200000000000000070080808887000E9
:1047100000000000003028242221300000000000AA
:104720000030088888483000000000000018202071
:1047300020110E00000000000000C02010F8000052
:104740000000000000070424243F240000000000B3
:1047500000F80888880808000000000000192120DF
:1047600020110E000000000000E0108888180000F2
:1047700000000000000F112020110E0000000000BA
:1047800000380808C8380800000000000000003F9A
:104790000000000000000000007088080888700019
:1047A00000000000001C222121221C00000000004B
:1047B00000E010080810E0000000000000003122B6
:1047C00022110F00000000000000000000000000A7
:1047D0000000000000303000000000000000000079
:1047E00010B582B00FF21000002400F0FBFE641C34
:1047F000062CFADB13BD0000000000C0F0380804EE
:1048000004040408081C00000000000F1F30604072
:104810004040402030080000000000C0F0180C04A8
:1048200004040C18F0C00000000000071F306040B6
:10483000404060301F07000000000004FC1C38E00E
:10484000C0000004FC040000000000407F400000A5
:1048500001071E387F00000000000004FCFC848477
:104860008484E4040C100000000000407F7F4000BE
:104870000000030000000000000000000004040429
:10488000FCFC040404000000000000000040404064
:104890007F7F404040000000000000C0F038080466
:1048A0000404040C1C000000000000071F386040D6
:1048B0004042423E3E0202002DE9F04184B00446EF
:1048C000884600F0AFF826A52246294601A801F047
:1048D000B5FEDFF86C67307801AF28B9642CA8BF4B
:1048E000432008DA432004E0642CA8BF452002DA04
:1048F0004520B8702020F87001A9012000F07AFE50
:10490000B078411CB17010230FF2580101EB401038
:10491000009010220021292001F0F4FEB078032835
:1049200004BF0020B07000F07DF84246294601A87F
:1049300001F084FE307828B9642CA8BF432008DA3F
:10494000432004E0642CA8BF452002DA4520B8705B
:104950002020F87001A9382000F04CFEBDE8FF814E
:104960002564000000003060C080000000000000EE
:10497000000000000000180C060301000000000009
:104980000000000000003060C0803060C080000087
:10499000000000000000180C0603190C06030100BB
:1049A0000000000000003060C0803060C0803060D7
:1049B000C08000000000180C0603190C0603190C37
:1049C000060301000000183060C0800000000000F5
:1049D0000000000000000C060301000000000000C1
:1049E000000000000000183060C0983060C08000F7
:1049F0000000000000000C0603010C06030100008B
:104A0000000000000000183060C0983060C098308E
:104A100060C0800000000C0603010C0603010C06B8
:104A2000030100000622002101A801F0FDBD10B520
:104A300082B0012808BF0FF2380103D0022808BF56
:104A40000FF2EC010091102300211022084601F022
:104A500059FE012400F0C6FD641C062CFADB4FF45D
:104A60007A7002F00BF8BDE8134001F0D2BB0000F1
:104A7000E01864E282010101010182E26418E000B1
:104A8000030C1021274E5850584E2721100C0300BC
:104A9000F00C0201010101020F0000000000000003
:104AA000030C0810101010080600000000000000A1
:104AB00000601010909090E00000000000000000E6
:104AC000000E11111010081F101800000000000047
:104AD00000010101FF0000000000000000000000D4
:104AE000001010101F101010000000000000000047
:104AF00000000000000000000000000000000000B6
:104B000080808080808080808080000000000000A5
:104B10000107798000807907010000000000000093
:104B2000000000071C07000000000000000000005B
:104B3000E018040212214181814122120418E00090
:104B4000030C10202844424141422428100C030049
:104B5000F00C0201010101020F0000000000000042
:104B6000030C0810101010080600000000000000E0
:104B700000601010909090E0000000000000000025
:104B8000000E11111010081F101800000000000086
:104B900000010101FF000000000000000000000013
:104BA000001010101F101010000000000000000086
:104BB00000000000000000000000000000000000F5
:104BC00080808080808080808080000000000000E5
:104BD00000010719E0B00D03010000000000000013
:104BE0000010181700011618100000000000000047
:104BF00070B582B00FF27C0501F096F9022808D05A
:104C00000ED304280AD006D3052808BF0FF21014CB
:104C100006E02C4604E00FF2941401E00FF2182491
:104C200005F18C000090002110231022084601F0AD
:104C300069FDDFF8005C287880B90226142000FBAB
:104C40000640283800900A2202FB06F0102300F0EC
:104C5000CDFC761C092EF1DB012004E05021102050
:104C600001F077FD0020287073BD000028030020AC
:104C70001C30002001FF00E11FE000FF01000001E7
:104C80001E0100011E010000006010109090E00065
:104C90000000000E111110081F1800001010F04045
:104CA00020101030000010101F1010000000000035
:104CB00010F02010101010E00000101F1000000075
:104CC000101F100000001013F3000000000000008F
:104CD00010101F101000000010F02010101010E035
:104CE0000000101F10000000101F100000E0101046
:104CF0001010F0100000007D8A8A8A8A91700000EE
:104D000000000080E0F8FE0707FEF8E080000000E9
:104D1000101C1F1F1F1F1F12121F1F1F1F1F1C10E1
:104D200001FF0100000000000000101F1010101013
:104D30001018040000C0201010101020C000000740
:104D4000081010101008070010F00010F01000F00C
:104D5000100000031C0300031C030000002020209F
:104D600020202020200000000000000000000000A3
:104D700001077980008079070100000000071C0707
:104D80000000000000C0201010101020C00000071C
:104D9000081010101008070000001010FE1010106E
:104DA0000000000000000F1010080000001C22216D
:104DB000414141820700001E081010101008070032
:104DC00000C0A090909090A0C000000708101010A4
:104DD0001008040010F02010101010E00000101F48
:104DE00010000000101F1000002020202020202094
:104DF00020000000000000000000000001FF212151
:104E00002121F9030400101F1010101010180400C5
:104E1000001010F04020101030000010101F101073
:104E200000000000001010F04020101030000010B2
:104E3000101F10100000000001FF4140404041FFE2
:104E40000100101F10000000101F100000001013C0
:104E5000F30000000000000010101F101000000000
:104E60000000E010101010F0100000609D8A8A8A87
:104E70008A91700001FF2010101010E00000101F38
:104E800010000000101F10000020202020202020F3
:104E900020000000000000000000000001077980F1
:104EA000008079070100000000071C0700000000D7
:104EB00000001010FE1010100000000000000F1085
:104EC0001008000038B50FF27C1451EA000213D12B
:104ED00000250CE0012D05D1009400F047F801F009
:104EE00011FC04466D1C022D3EDA002DF2D100218A
:104EF00000F05AF80846F2E7C0B1002934D1012881
:104F00000AD104F12000009010231022502001F05B
:104F1000F9FB04F1400014E0022825D100F044F828
:104F2000002001F0EFFB04F1600019E0E1B101297C
:104F30000DD104F1200000F018F801F0E3FB04F1BA
:104F400080000090102300211A4608460AE002293A
:104F50000AD100F029F8002101F0D4FB04F1A000EF
:104F600000F003F801F0CEFB31BD009010231022B9
:104F700000215020704770B50E0182B004465025C4
:104F8000F6B20EE0102105F1100001F0E2FB00F096
:104F90000BF80021E8B201F0B5FB103D192001F03B
:104FA0006DFDB542EEDA73BD0094102310227047F8
:104FB000F8B52148B0F91260DFF8340B0078012809
:104FC00003D1314600F05EFB06460FF27804002163
:104FD0002046FFF7D0FF4FF47A7096FBF0F7FFB250
:104FE0000FF64835012105EB4710FFF7C4FF4FF4DA
:104FF0007A7000FB1766642096FBF0F7FFB202217F
:1050000005EB4710FFF7B7FF642000FB17600A228B
:1050100090FBF2F0C0B2032105EB4010FFF7ABFFAD
:10502000042105F5D070FFF7A6FF04F12000BDE8CC
:10503000F44005219FE7000080020020A4300020FA
:10504000280300208080404020201010080804041D
:10505000FE00000000000101020204040808101014
:105060003F0000000000FE0404080810102020404B
:105070004080800000003F10100808040402020174
:1050800001000000008080C0C06060303018180C43
:105090000CFE0000000101030306060C0C1818307A
:1050A000307F00000000FE0C0C181830306060C02B
:1050B000C080800000007F303018180C0C060603FA
:1050C000030101008080C0C0E0E0F0F0F8F8FCFCD3
:1050D000FE00000000000101030307070F0F1F1F60
:1050E0003F0000000000FEFCFCF8F8F0F0E0E0C03B
:1050F000C080800000003F1F1F0F0F070703030140
:10510000010000002DE9F041DFF8EC19DFF8EC892F
:105110008D7813185DB90125CD7000250D71082516
:105120004D7100250D704D7001258D7028E0CD78F2
:1051300025BB0E794F7906EB000EAE4405EB080453
:105140009EF833E084F8D8E0F4182C1902EB050E31
:10515000C64494F833408EF8D8406D1CEDB2AF428F
:10516000E9D27D1C4D71761EEDB20E710B2D05D16D
:105170000A20487100200871012025E00D7925BB27
:10518000CE784F79012511E02C1806EB050EC644A8
:1051900094F833408EF8D84006EB020EEC18AE447B
:1051A000C64494F833408EF8D8406D1CEDB2BD4231
:1051B000EAD3781E4871721CCA70C0B228B90120A7
:1051C0004871092008710020C870BDE8F08110B551
:1051D000002100220123934003405400042AB9BF58
:1051E000C4F10704A340E41FE3405918521CC9B29C
:1051F000082AEFDB084610BD2DE9FE4F824698468F
:10520000DFF8F45818000AD1287828B900260120C0
:10521000002728706E700CE0AE686F6910E0B8F17E
:10522000010F0BD1687830B92870002601200027C3
:105230006870AE7004E0EE68AF6901E02E69EF6956
:105240009DF80400DFF8E8904843400000240090F7
:1052500008E014F80A00FFF7BAFF04EB0901641C28
:1052600081F8D80000988442F3D300229DF804000E
:10527000DFF88C1803E09DF8043002EB4302009B3A
:105280009A422FD200240AE021F81EA0641C31F8B3
:105290001EE04FEA1E2A83F8D8A08CF8D8E084429A
:1052A000E9D21318E31803EB090C02EB040E0EEB22
:1052B00009039CF8D8B093F8D8A04BEA0A2A21F841
:1052C0001EA0B8F1010F06D1002E14BF2AFA06FA6B
:1052D0000AFA07FAD8E7002F0CBF0AFA06FA2AFAE8
:1052E00007FAD1E7002408E004EB090A9AF8D8008D
:1052F000FFF76DFF8AF8D800641C00988442F3D34E
:105300001FB9102E08D1002610277F1E9DF8080017
:1053100020B9AE606F6108E0761CF7E7B8F1010FC5
:1053200007BFEE60AF612E61EF61BDE8F78F00004F
:10533000000000202DE9FD4EDFF8C807DFF8B05768
:105340008946B0F91210287881B0012802D100F006
:1053500099F901460A2091FBF0F000B2642190FB1C
:10536000F1F6F6B201FB16020A2392FBF3FA5FFA9A
:105370008AFA01FB160003FB1A00C0B2009068789D
:10538000012803D1E8610020286206E0022805D147
:105390000020E86110202862002068700020A861C9
:1053A0000FF2887405E0FFF712FF8BF83801781CC4
:1053B000A861AF69DFF844B7B7EB490F1FDA04EB18
:1053C0004610BB44385CFFF702FF8BF8D80004EBB3
:1053D0004A10385CFFF7FBFE8BF8F800009804EBEE
:1053E0004010385CFFF7F3FE8BF818013819297864
:1053F00001290CBF90F8E00190F8A001D3E79DF8D7
:105400000400296ADFF8F826C0F1030009FB00F068
:105410004300E86901E003EB4903062606FB09F6B1
:10542000B3422BDA002609E022F81E40761C32F83F
:105430001E703C0A8AF8D8408CF8D8704E45EADADB
:1054400003EB090AB2440AEB0B0C03EB060E0EEB5E
:105450000B0A9CF8D8709AF8D84047EA042422F83E
:105460001E409DF8087027B9002914BFCC40844025
:10547000DAE700280CBF8C40C440D5E700201AE0D2
:1054800006EB0B0494F8D800FFF7A1FE84F8D800CF
:1054900094F8F800FFF79BFE84F8F80094F81801E0
:1054A000FFF795FE84F8180194F83801FFF78FFE96
:1054B00084F83801701CA861AE69B6EB490FDFDBD8
:1054C00001210BF1D800A96100901023A869000701
:1054D00010220021000E01F015F9A969491CA961EB
:1054E0000529F1DBE869296A50EA010202D019B9FD
:1054F000102804D1002005E0481E286201E0401C6D
:10550000E861012004B0BDE8F08EF8B504460D4610
:10551000DFF8F46514220021304601F085F80FF61B
:10552000440724B900230A220121384606E0012C51
:1055300007D101230A22012107F12000FFF75CFEB9
:1055400006E0022C04D10A2201213846FFF7DAFDD9
:10555000009610230A220021562001F0D3F80FF202
:10556000EC7400F05FFE042803D104F10C000090FD
:1055700005E0002D06BF07F11400009000941023F1
:1055800006220021502001F0BDF8F1BD38B50C46CF
:1055900008B1092801DB00250CE0451E0AE00A20BD
:1055A0000FF2885101EB401000901023280100F009
:1055B0001CF86D1C2078A0B114F8010B2028EED047
:1055C0002D2808BF0C20EBD0A0F130010A2902D20F
:1055D0003038C0B2E4E7A0F14101062938BF3638BF
:1055E000F7D331BD00901023200110220021C0B25A
:1055F00001F088B8F8B504460D4600260FF60C07F2
:105600000CE0142101FB00700090F6B20A2000FBB0
:10561000064010230A22FFF7E9FF761C287888B19C
:1056200015F8010B432808BF0B20EAD0452808BF16
:105630000C20E6D0A0F130010A293ABF3038C0B2C0
:105640000A20DEE7F1BD38B50446DFF8B804B0F94A
:105650001450B0F91210DFF89804007801280BD12B
:1056600000F010F8002C0CBF2918411BBDE8344095
:1056700009B20120FEF76CBD0CB9681832BD481B99
:1056800032BD39460020FEF763BD38B50D460446ED
:10569000DFF85C14DFF86C040978B0F91200012916
:1056A00002D10146FFF7EEFF64224FF47A7190FBBE
:1056B000F2F290FBF1F192B265B92018642390FBED
:1056C000F3F34FF47A7490FBF4F080B289B288421D
:1056D0000CD10DE0001B642390FBF3F34FF47A74BC
:1056E00090FBF4F080B289B2884201D0032032BD31
:1056F0009BB2934201D0022032BD012032BDF8B5E9
:10570000DFF80054DFF8E843B5F914000A2804BFB5
:105710000120A081DFF8F463F068002800F08980A0
:10572000606938B10020606100F0FBFB01F05AF8BD
:10573000FFF73EFC00F0EFFB40282DD0B0F5807F56
:1057400058D16089B5F9121088421EDA01206070C4
:105750000121A88AFFF799FF074600F06DF800289D
:10576000FBD10120FFF76FFF6882B5F91210608945
:105770008142B8BF68820220607000F05DF80028A6
:10578000FBD100210120FFF79DFBB5F912006189D3
:1057900088422FD101212AE0B5F9120021898842DF
:1057A0001FDA012060700021A88AFFF76EFF07460C
:1057B000002200F042F80028FAD1FFF744FF688287
:1057C000B5F9121020898842B8BF68820220607043
:1057D000002200F032F80028FAD100210220FFF761
:1057E00071FBB5F912002189884203D10221002002
:1057F000FFF768FB40F2051700F08DFB80B1A08930
:1058000040B1F168B94205D3322141430A31401C0D
:10581000A982A0814FF49670F060002000F07EFB1A
:10582000A08930B1F068B84203D20A20A8820120D2
:10583000A081F1BDD430002001221021384679E545
:105840002DE9F843B14DAA4CAE4E00F0EBFC401EE2
:10585000072869D8DFE810F00800C5004400F70009
:10586000910094004901E7006069012801D100F02E
:1058700051F9207940B900F0CDFF00213046FEF704
:10588000CFFE0120207107E0A86928B9686918B126
:10589000FEF7CCFC3220A861686978B9608A401CA8
:1058A000608280B2322805D1208A411E2182C0B296
:1058B00000F0DEFE208A08B900F0ECFE01F00FFBDC
:1058C000012803D000F027FB00282DD0F069686183
:1058D0003320208200F0CCFEBDE8F14300F0D5BEBD
:1058E000606928B90120606100F01BFB00F07AFFBD
:1058F00000F0A0FC8046E078B8F1010F06D008B1B6
:1059000000F070FF0020E081E07023E0E1894B2986
:1059100008BF002804D100F065FF0120E07000E01E
:10592000C0B1A86908B12868DFE000F087FC07462D
:105930002078B6F91290012806D1FFF7A2FE07469B
:105940004946FFF79FFE814649463846FEF7B4FFB9
:105950003220A8612868002804BFE0780028E3D13D
:1059600000F06CFC0746B6F91200B842B4BF391A11
:10597000C11B122900DA0746A6E0BDE8F143BEE6E6
:105980006069012801D100F0C5F800F0C4FA48F2BE
:105990004001401A07D0C03802D0403806D007E096
:1059A000012060710BE0022060710DE0607101E088
:1059B000607910B9FEF714FF0AE0012802D100F067
:1059C00029FF05E0022803D101213046FEF728FE19
:1059D0006079032804D0002000F0A0FA0320607151
:1059E00083E0606910B9012000F095F8484E3078E6
:1059F00028B1FFF71CF80020307000F0F3FEA86912
:105A0000002872D100F08AFB07462078012802D1D5
:105A1000FFF737FE074600F081F836A10620FFF7B2
:105A2000B5FD14200DE0606910B9012000F073F895
:105A30006069012804BFA869002856D1FFF7D8F88B
:105A40003220A86151E000F0F9FB0746B6F91000DA
:105A5000B842B4BF391AC11B1329B8BF074600F0BA
:105A6000E9FB8046E078B8F1010F06D008B100F0FC
:105A7000B9FE0020E081E07020E0E189322908BF12
:105A8000002804D100F0AEFE0120E07000E0A8B1D3
:105A9000A86900287FF447AF2078B6F91090012854
:105AA00006D1FFF7EEFD07464946FFF7EBFD8146BD
:105AB00049463846FEF700FF3220A86128680028D2
:105AC00004BFE078002810D12078012802D1FFF728
:105AD000D8FD074600F022F801F0FEF901464046E5
:105AE000FFF713FDE089401CE081BDE8F183000071
:105AF0002803002046000000700300200000002062
:105B0000A02E002080020020D80000201C300020A1
:105B1000280400200020606100F064BE0A2097FB8A
:105B2000F0F109B20120FEF742BB0000000000F8CE
:105B3000FE0301010103FEFCF00000000000003F35
:105B40007FE0808080C07F3F0700000000000008E9
:105B5000040406FFFF000000000000000000000039
:105B6000808080FFFF808080000000000000000631
:105B70000701010181C37F3E00000000000000E03A
:105B8000F0D8CCC6C3C0C0E0000000000000000692
:105B900007818181C1633F1E00000000000000E01A
:105BA000C080808181C37F3E0000000000000000B3
:105BB000C060380CFFFF0000000000000000060776
:105BC00005040484FFFFC48406000000000000FFF9
:105BD000FF8383838383830300000000000000E0D1
:105BE000C080808080C17F3F08000000000000E08E
:105BF000F89C8EC2C3C18181000000000000003FFC
:105C00007FC080808080C17F3F0000000000000FC7
:105C10000303030383E33B0F0300000000000000C5
:105C200080E0781E07010000000000000000187EE0
:105C30007EC381818181677E3C00000000001C7E64
:105C4000FFC180808081E37F3C000000000078FE7F
:105C5000C603010101039EFCF000000000000001EA
:105C6000018383C361713F0F010000000000000049
:105C70000000000000000000000000000000000024
:105C80000000000000000000000000000000000014
:105C900000000000F0000000000000000000010112
:105CA000010101011F0101010101010000000000CB
:105CB00000000000000000000000000000010101E1
:105CC0000101010101010101010101000E11110E8B
:105CD000E0F80C060301010101021E0000000000B3
:105CE0000F3F70C080808080804020000000000056
:105CF0000000C0C0C0C000000000000000000000A4
:105D00000000303030300000000000000814221481
:105D1000080202FE06020202C202061E0000000085
:105D2000008080FF8181010103000000C030080471
:105D30000402FAAAFA0204040830C000071820403E
:105D400058A4DBDEDBA458402018070000F0FEFF5B
:105D5000F000007F7F7F7F00FF0FE1E00FFFFF80FB
:105D6000BFBF80FF10188CC66363C68C18104263D7
:105D700031180C0C1831634200F01E1FF00000FFB8
:105D80008080FF0042C68C183030188CC64208183C
:105D90003163C6C6633118088C8CC6C68C8CC6C6E7
:105DA0008C8C31311818313118183131008C8C8CB1
:105DB0008C8C8C8C8C8C8C8C8C8C8C00003131314C
:105DC00031313131313131313131310080C06030E8
:105DD00098CC66333366CC983060C08088CC66330C
:105DE000190C060303060C193366CC88113366CCF4
:105DF000983060C0C0603098CC6633110103060C47
:105E0000193366CCCC6633190C06030100E0180484
:105E100004040418E000000F3040404040300F0000
:105E200000000808FC0000000000000040407F4027
:105E3000400000000078040404040488700000603E
:105E40005048444241407000003804048484C83003
:105E5000000000384040404040211E0000008060AB
:105E60001008FE0000000007040444447F4444007E
:105E70000000FC0484848404040000384141404054
:105E800040211E0000C03088848484041800000F64
:105E90003140404040211E00001C04048444340C66
:105EA00004000000007E0100000000000070880473
:105EB000040404887000001C2241414141221C005E
:105EC00000F0080404040418E0000030414242429B
:105ED0002219070000000000000000000000000080
:105EE00000000000000000001C1CC0300804040476
:105EF0000830000007182040404020101C120C02FF
:105F000002FE8282E20200000000407F40000300A7
:105F1000AD4800787047AD4840687047AB4948606D
:105F20007047AA4908707047A7484078704770B515
:105F3000044600250A26A64801F019F94519761EDF
:105F4000F9D10A20B5FBF0F040F663729E49904209
:105F500003D304204870002070BD0A2250439022D1
:105F6000B0FBF2F000220FF2B42333F81250A84233
:105F7000CD6808D2521C042A05D2022AF5D1002C81
:105F8000F3D0A842F6D3501C70BD92490A68002095
:105F9000D243920548BF4FF480700968C94349064F
:105FA00048BF40F0400088B188490B788A68012BCF
:105FB00004BFCB68834205D1521C162A05D340F496
:105FC000004001E00022C86048608A60704770B5F8
:105FD00081494A680E78D3089CB2C5001EB90120D9
:105FE0004D60087009E0844234BF041B241AA4B237
:105FF0003D2CBCBF8018C51A4D60E80870BD38B58F
:10600000002000F02EFD754810210160192000F0DD
:1060100039FD734D0A2021E0002000F01DFD696864
:10602000AA684118824238BF0246AA60EA689042D4
:1060300088BF1046E860288801280CD1A868081A93
:10604000E968401AC008FFF7C2FF0446002141F288
:106050008830E860A96069602888401E2880288808
:106060000028D9D1204632BD5E490A7822B9C00045
:10607000012248600A7007E04A688018931002EB1A
:106080005372A0EBE2004860811000EB5170C01029
:10609000704738B50025524C0A2026E0012000F058
:1060A000DBFC216962694118824238BF02466261A5
:1060B000A269904288BF1046A0612088012811D1B2
:1060C0006069081AA169401AC008FFF7CDFF40F6C1
:1060D000E4414843000BA0F5FA75002141F28830F5
:1060E000A061616121612088401E208020880028F5
:1060F000D4D1284632BD10B5FFF781FF0446FFF723
:10610000C8FF3149B4F5C87F05D2B0F5967F02DAF1
:106110008C60012000E00220087010BD7CB50546AF
:10612000FFF76DFF0446FFF7B4FF27494A8840F6A2
:10613000FF739C4202D18B885B1C07E00023A4F60E
:10614000D966B6F5937F34BF521C00224A808B80FB
:106150004A888E8813463C2E17DB0AB903224A7000
:106160003C2E03DA0A2BBCBF01224A70A5F57A72D5
:1061700096235A4340F6B83392FBF3F250328968C3
:10618000B5F57A7F08D10A3A07E0002EE8D10A2B4C
:10619000E8DB02224A70E5E71DB18B18A342B8BFC5
:1061A000A41AB0F5C87FC8BF4FF4C87040F22633B8
:1061B000611A4FF47A72584302FB010090FBF3F02E
:1061C00000B276BD000000002804002060300020EE
:1061D000002801400808014094300020140C0140C0
:1061E000900300209C30002010B5044645F2555025
:1061F00000F0CAFF032000F0CAFF0A2060434003FA
:10620000000C00F0C7FF00F0C8FF00F0CBFF01203A
:1062100010BD80B500F0C1FF012002BD2C01960029
:106220005A002800DFF8A00300787047DFF89813C1
:1062300008707047DFF89003808B7047DFF88803A1
:10624000B0F91E00704720220FF2BC31DFF87C034A
:1062500000F0B4BFDFF8700300218180C1800181AC
:1062600041818161C1600F210182022141820121AE
:106270008182704770B5D449B1F904308E69C88005
:106280000546581B0881002400B2B0F5FA7FBCBF58
:1062900001248619AB4205DAEB1A1BB2152BA4BFF9
:1062A000002600248E611F28B4BF002301234E8ADC
:1062B0000D8A74438E69744300FB0544B1F90A608A
:1062C0008D8A4881821B6A4303FB0242012AB8BFC0
:1062D000002205DB41F271708242A8BF41F2707268
:1062E000CA6090B270BDB84A9180884204DA091A37
:1062F000122904DB002105E0411A132901DA0221E9
:1063000000E001219183B5E770B5AF4DB04C28781E
:1063100001280ED0022800F0F380032849D0042879
:1063200000F09880052800F0E380082800F017812D
:1063300070BDFFF7F0FD402811D0B0F5807F18D177
:106340006878012815D000F052F9042811DA0320EA
:106350002870002028842060A061606109E06878CE
:10636000012806D0022028700020A0610120FFF73C
:10637000D8FD687820B1E06910B96870FFF7CEFDEC
:1063800000F035F940B9FDF7D3FE012804BF002025
:10639000FDF7D2FE08202870A878042818BF01282D
:1063A00006D0286C60610020FFF7B8FD0120A870BE
:1063B00070BDFFF7B0FD48F24001401A04D0C0386C
:1063C00002D040380AD00FE000F00BF90520287009
:1063D000002060604FF4FA70E06005E000F041FBDF
:1063E00000F002F900F006F900F001F9042805DBDD
:1063F00000F0F7F800F0F8F800F0FCF8B5F93660B6
:10640000606848B93046FFF789FE00F0E5F800B251
:1064100000F027FB1E20606000F027FB00B96060E1
:1064200000F05DFD98B9288C18B901202884E86B2C
:10643000A060A06800284DD1A883A06100F011FBE6
:106440000020FFF76BFD286C6061042041E0002014
:1064500028843FE0B5F93460B5F93610B142B8BFD1
:106460000E46606848B93046FFF758FE00F0B4F8B1
:1064700000B200F0F6FA1E20606000F0B8F80428C0
:106480000DDB00F0AEF800F0AFF801202870286CAA
:1064900060610420A870012068703220E0616069AA
:1064A00058B900F0DEFA00F09FF801206870C820AB
:1064B000E0610420A8700120287000F010FD012880
:1064C00002D0FFF728FD28B10020A0616061288478
:1064D00003202870FFF728FD022873DBFDF728FE54
:1064E000012804BF0020FDF727FE0820287070BD9A
:1064F000E068002866D1032028700020206070BD6D
:10650000E06920B10020BDE87040FFF707BDFFF74C
:1065100002FD48F24001401A12D0C03810D0403875
:106520000BD1FFF7E8FDFFF7F3FC012803D100F0E2
:10653000FCFF01F049F8C820E061E878002841D06C
:106540000020E87000F08DFA012028700220A87069
:106550000120687000F048F83220E06170BDFFF75C
:10656000E3FC801E012803D9801E01280FD921E0F9
:10657000B5F93600FFF7D2FDE883FFF7D5FC012817
:1065800018D1032028700020FDF7D6FD12E000F09E
:106590002EF801280EDB00F02AF804280ADA00F0B1
:1065A00020F800F021F8012068700220A061A87096
:1065B0000120287000F059FA20B100F012F81021E3
:1065C0000448016070BD00005C02002080020020D1
:1065D0001C300020140C0140E8833146B5F91E0040
:1065E00081E6002000F03DBA0020FFF79ABC0120B0
:1065F000FFF79DBC012028700320A870012068705F
:106600003220E06170470000322E3131000000007E
:1066100000000000000000006009B80B64000000EA
:1066200030750000905F010010B5044610460A4620
:106630000146204601F098FD204610BD0CB41CB563
:10664000044604A801900A46009401AB00A907483B
:106650007844183001F0C0FD009900220A7000282B
:106660005CBF0098001B16BC5DF80CFB631B0000B0
:1066700080B50FF2FC22136800A93C220B608DF854
:106680000300042100F012F801BD00B583B00FF241
:10669000E42103E000B583B00FF2E0210CC900A8AB
:1066A00006210CC000F001F807BD3C2200A802F052
:1066B0004BBD10B5A0B00C4640218DF8001000AACB
:1066C000411CC9B2012003E014F8013B8354401C73
:1066D0008842F9DBFFF7E9FF204620B010BD30B556
:1066E00083B00FF2A02330CB00AA203030C28DF847
:1066F000050000A84278891841703C22082102F068
:1067000023FD37BD2DE9F041044690465818CE08C8
:106710000722C0B2114218BF761C810800EB5171EC
:10672000CA08B0EBC2011ABF501CC5B2D5B2069F51
:1067300009E031462046FFF7D2FF39464046FFF7D1
:10674000B8FF0746761CF6B2AE42F2DB3846BDE82B
:10675000F08130B5A1B004460D462A46002101A8BB
:10676000FFF762FF00F052F82A460021E0B2FFF77F
:10677000C9FF00F04BF82A460821E0B2FFF7C2FF3C
:1067800021B030BD80B54FF48070ADF8000000A995
:1067900003208DF8020010208DF803000E4802F04F
:1067A0000FFD01BD10B50D4C4FF48071204602F075
:1067B0006DFD022000F062F94FF48071204602F076
:1067C00063FD022000F05AF9BDE810403C222E2162
:1067D000034802F0B9BC0000000C01400008014071
:1067E000A002002000B5A1B08022002101A8FFF77F
:1067F0001BFF00F00BF8802200F0B0F800F006F864
:106800008022194600F0ABF821B000BD01A800902D
:10681000082370472DE9F041A2B00125002201A90B
:106820000FF2681000F09EFE040000F07F802078D8
:10683000422804BF60784D2840F0878094F83600E5
:10684000FF2804BF94F83700FF2804D194F83800DB
:10685000FF2808BF002500F084F801260F2700203C
:1068600000210C2202FB07121219802392F83E200D
:106870004FF0080C03EA020E1DB1BEF1000F0CD15F
:1068800002E0BEF1000F08D00DF1080E86449EF81C
:10689000018046EA08088EF8018000F059F8E9D135
:1068A000491C0C29DDDB7606360E7F1E082FD6DA52
:1068B00002A800900823602200F050F8FFF7A9FC1E
:1068C00000F04FF801260027002000216FF00B0296
:1068D00002FB07121219802392F892204FF0080C45
:1068E00003EA020E1DB1BEF1000F0CD102E0BEF1B1
:1068F000000F08D00DF1080E86449EF8018046EA8C
:1069000008088EF8018000F023F8E9D1491C0C2911
:10691000DCDB7606360E7F1C082FD5DB02A8009044
:1069200008236022082100F01AF808E00FF268003E
:1069300000901023602200210020FFF7E3FE4FF4B7
:106940007A7000F09BF8FFF764FC22B0BDE8F0819C
:10695000401C5B08C0B2BCF1010C70470021002054
:10696000D0E67F2200210DF10900FFF75DBE000097
:1069700080818000808D801480AF0000808D801029
:1069800080AE000080B080218020807F4C4F474F38
:10699000494E2020424D5000000000000000000041
:1069A00000000000000000000000000000000000E7
:1069B00080C0E0F0F8FCFEFEFCF8F0E0C080C0E033
:1069C000F0F8FCFEFEFEFC783080C0C000189CCEC3
:1069D000E6F0F8FCFEFEFCF8F0E0C0E0F0F87C0029
:1069E00000000000000000000000000000000000A7
:1069F0000000000000000000000000000000000097
:106A00000000000000000000000000000000001F67
:106A10000F07030103070F1F3F7F7F3F1F0F070370
:106A20000103070703191C0E6773391C0E070301C6
:106A300003070F1F3F7F7F3F1F0F07030100000069
:106A40000000000000000000000000000000000046
:106A50000000000000000000DFF8301431F81000E2
:106A60007047DFF82C14C8607047DFF82404C06852
:106A700070472021DFF81C0402F036BCDFF8101448
:106A8000142202E0DFF808140A2250438860886864
:106A90000028FCD17047DFF800144FF400620A614F
:106AA00000284FF480520A6108680AD120F440405F
:106AB00040F440500860086820F4402040F4403022
:106AC00009E020F4804040F430400860086820F479
:106AD000802040F430200860704780B502F008FC48
:106AE000102002F0C5FC012002F0BCFCDFF8AC0372
:106AF000DFF8AC23416811434160016841F08071C7
:106B00000160012002F00DFC012002F00DFC392093
:106B100002F07BFC0028FAD0022002F008FC02F010
:106B20000DFC0828FBD10121172002F04AFC0121AD
:106B300040F20C6002F04EFC0121032002F053FCF5
:106B4000BDE80240012002F0FEBB80B501464FF0D7
:106B5000006002F040FD4FF4A06002F00BFD142035
:106B60008DF8000002208DF8010000208DF8020051
:106B700001208DF8030000A802F001FD01BD38B529
:106B8000C84CC949C94D4FF6FF70E0602160C84943
:106B90006160E86000A9C74828604FF088306860ED
:106BA0008020ADF80000002000F022F84FF4807043
:106BB00000F023F80121C04802F06AFB102000F029
:106BC0001CF80120ADF8000000A9002000F01CF81E
:106BD0000220ADF8000000A9002000F015F84FF4E5
:106BE0001070ADF8000000A9482000F001F831BD98
:106BF0008DF80300204602F0E3BAADF8000000A9CA
:106C000003208DF8020010208DF80300284602F0C2
:106C1000D7BA2DE9F0414FF42044A84E90B0254654
:106C2000304602F0EDFCA648059005A9974806906D
:106C300000200790022008900020099080200A90F0
:106C40004FF480700B904FF480600C9020200D90DA
:106C50004FF400500E9000200F90304602F01DFDC2
:106C60000121304602F034FD964E304600F0D6F950
:106C7000002000904FF4602700F05FF8029700209A
:106C8000039000A902208DF81000304600F0EFF9C3
:106C9000DFF83482404600F0C1F9002000900297EE
:106CA00000F04BF800A90020039001208DF810009F
:106CB000404600F0DCF9072302220721304600F0AD
:106CC0001AFA072301220821304600F014FA05239E
:106CD00001220921404600F00EFA0121304600F061
:106CE000EDF90121304600F0E0F90121404600F0C5
:106CF000DCF9304600F0EBF9304600F0EDF920B158
:106D00002846451E0028F7D114E0404600F0DFF980
:106D10002546404600F0E0F920B12846451E0028EF
:106D2000F7D107E00121304600F0DCF901214046AF
:106D300000F0D8F910B0BDE8F08101208DF8040012
:106D40008DF80500704700B585B04FF4E06002F0A3
:106D500011FC2F20ADF8040001A942F20F70ADF82C
:106D600008000020ADF80A00ADF806004FF08040A2
:106D700002F0D4FC00F061F802F026FD012200F0E0
:106D80005CF802F019FD00F058F802F00BFD1C2031
:106D900000F02AF805B000BD1FB54FF4E06002F026
:106DA000E9FB2F20ADF804003120ADF808004FF4C6
:106DB0008070ADF80A000020ADF8060001A9434C30
:106DC000204602F0ABFC0121204602F0FDFC01222E
:106DD0000121204602F0F0FC0121204602F0E2FCF5
:106DE0001D2000F001F81FBD8DF8000000208DF877
:106DF000010001208DF802008DF8030000A802F0C8
:106E0000BEBB80B500F019F802F0E8FC0020304964
:106E100001EB8002536813B153685B1E5360401C42
:106E20000828F5DB0878401C08700321084204BFDD
:106E3000BDE80140FFF7A9B801BD01214FF0804036
:106E4000704780B50121214802F0C8FC1048416814
:106E500011B14168491E4160816811B18168491EC4
:106E60008160C16802781B4B49B1C168491EC1608D
:106E7000002A19BF1021596010211960D243C1683E
:106E800011B9102159600022027001BDBC300020F0
:106E9000503000201C300020040801400010024047
:106EA0000A8468000008014088888808000C0140B6
:106EB00083B8BB8B00888344000130000800024087
:106EC0004C240140002401400028014000040040FF
:106ED00018300020100C01404E48C08970474E48C1
:106EE0000088704700B585B08DF800008DF801105E
:106EF0001D22022100A802F027F90DE000B585B09F
:106F000003468DF800001D22012100A802F031F98E
:106F100040489DF800100173012005B000BD80B508
:106F200000212A20FFF7DEFF02210E20FFF7DAFF03
:106F300003212A20FFF7D6FF00212B20FFF7D2FFE5
:106F4000BDE8044001212A20CCE770B51C4600238F
:106F5000002500F110069642A6BFA0F11006B2422D
:106F6000012301F11006A642A6BFA1F11006B4420A
:106F7000012300F120069642A6BF20388242012557
:106F800001F12000A042A6BFA1F12000844201250A
:106F900021480580184670BD1E480178407802E0FF
:106FA0001C480179407940EA01200009802903DB6F
:106FB000C043401C0005000D704730B5154C85B02E
:106FC0000621204602F022FC0020FFF797FFA8B11F
:106FD000207B000712D50120FFF790FF70B1207BC6
:106FE000207065702671677184F8088084F80990B4
:106FF000FFF7D2FF0546FFF7D3FF00E0258A002305
:10700000208A2A460021FFF7A0FFE081258205B0F3
:1070100030BD00003C3000204E30002080B5554986
:10702000884208D101214FF4007002F0E5F90021F7
:107030004FF4007016E05049884208D101214FF406
:10704000806002F0D9F900214FF480600AE04B49DA
:1070500088420BD101214FF4004002F0CDF900210C
:107060004FF40040BDE8044002F0C6B901BD4268DB
:10707000434B1A400B681A430B7942EA03224260E1
:10708000404B82681A40CB681A438B681A434B798D
:1070900042EA43028260C26A097C491E22F47002FD
:1070A000C9B242EA0151C16270470029816812BF2A
:1070B00041F0010149084900816070470029816859
:1070C00014BF41F4807121F4807181607047816840
:1070D00041F00801816070478068C008FFE700F058
:1070E000010070470029816814BF41F4A00121F418
:1070F000A0018160704770B507240A290BDBA1F15C
:107100000A0505EB4505C668AC4026EA0404AB4019
:107110002343C36008E001EB41050669AC4026EA61
:107120000404AB40234303611F24072A09DA521EDB
:1071300002EB8202436B9440A343914019434163A5
:1071400070BD0D2A09DAD21F02EB8202036B944054
:10715000A34391401943016370BD0D3A02EB8202D3
:10716000C36A9440A34391401943C16270BDC06C8F
:1071700080B270470024014000280140003C0140DB
:10718000FFFEF0FFFDF7F1FF09490860704709496C
:107190000860704708490860704705484AF6AA2108
:1071A0000160704702484CF6CC4101607047000016
:1071B00000300040043000400830004062B38B07CC
:1071C00008D0521E11F8013B00F8013B00F024806A
:1071D0008B07F6D1830740F0208000BF103A07D319
:1071E00030B4B1E83810103AA0E83810F9D230BC09
:1071F000530724BFB1E80810A0E8081044BF51F8B5
:10720000043B40F8043BD20724BF31F8022B20F89E
:10721000022B44BF0B7803707047083A07D3B1E8DC
:107220000810083A40F8043B40F804CBF7D2530763
:10723000E4E750F8041B61B150F8042BD30744BFB6
:10724000A9F101039A18002342F8043B091FFAD15F
:10725000EFE7704770470000F8B564240A23DFF8B1
:10726000382C072911D8DFE801F004111E4F75846E
:10727000B6BD0178457880785D4304FB0151401824
:1072800041F2D041401A58431082F1BD017845784F
:1072900080785D4304FB0151401841F2D041401A0F
:1072A00058435082F1BDC17846788578A1F1300C01
:1072B000BCF10A0F0CD200784FF47A77664307FBD3
:1072C000006003FB0500081800F53C57B03716E0D6
:1072D000A5F130010A2909D2007803FB06F104FB6D
:1072E0000010281841F2D041471A08E0A6F13001F9
:1072F0000A2904D2007803FB0060A0F504773FB2AE
:1073000004FB07F09061F1BDC1788578A1F13006EA
:107310000A2E0DD2067840784FF47A77604307FB47
:10732000060003FB0500081800F53C57B0370CE0D9
:10733000A5F130010A2908D201784078584304FBAE
:107340000100281841F2D041471A3FB204FB07F070
:10735000D061F1BD46780778A6F130000A283ABF1F
:1073600003FB0760A0F50477303F03FB07F0908232
:10737000F1BDC178467807788578A1F130000A28F8
:107380000CD24FF47A7004FB06F200FB072003FBDB
:107390000500081800F53C57B03715E0A5F130009E
:1073A0000A2808D203FB06F004FB0700281841F264
:1073B000D041471A08E0A6F130000A283ABF03FB83
:1073C0000760A0F50477303F3FB2DFF8D01A03FB27
:1073D00007F00860F1BDBDE8F24000783038C0B277
:1073E000FCF7AEBE467807788578A5F130000A280C
:1073F00008D203FB06F004FB0700281841F2D04135
:10740000471A08E0A6F130000A283ABF03FB0760DC
:10741000A0F50477303FDFF8880A007818B9DFF864
:10742000840A3FB20760F1BD30B507291AD8DFE8FA
:1074300001F004041B2B374552578378A3F1300128
:107440000A293EBF4478A4F130010A293EBF0178E1
:10745000A1F13100042866D2342903D1302C08BFB1
:10746000302B60D1012030BDC17830390A2922BFCC
:10747000817830390A29F5D3417830390A2952D236
:1074800000783638042821E0C17830390A29E9D358
:10749000817830390A2946D200783338072815E038
:1074A000017840783038062803D2A1F13000032853
:1074B0000CE03529D6DA312935D1D3E70178407887
:1074C0003038032804D2A1F130000A28CAD32AE0B8
:1074D0003929C7DA27E001783129C3D03029EBE711
:1074E0004478017883780A20A3F130050A2D08D268
:1074F0006425604305FB0100181841F2D041401A91
:1075000009E0A4F130030A2B3ABF00FB0140A0F5CB
:107510000470A1F13000012AA4D1DFF888190968AC
:1075200080B288429ED0002030BD80B54FF4185202
:10753000DFF87419DFF8740902F06BF9DFF87009ED
:10754000BDE808401022B6E310B5002207E0135C46
:10755000A3F161041A2C3CBF203B1354521C8A42F5
:10756000F5DB10BD2DE9FF41DFF8408904460D46EB
:1075700008F2004710260B22394601A802F049F90B
:107580000B2101A8FFF7E0FF0B22214601A802F022
:1075900047F990B9022207F11C01284602F039F997
:1075A000022207F11A0100A802F033F9BDF8000029
:1075B00008EB402000F5007003E02037761EDAD19A
:1075C000002004B0BDE8F0812DE9F04FADF5097D54
:1075D00000240FF60017ADF80040002600AA0DF1B8
:1075E00002013846FFF7BEFF0190DFF8C098DFF8D0
:1075F000C0A809F2004002900198002800F0028122
:107600004FF48C72002143A8FFF70EF8DFF8A4783E
:1076100001994FF40072384602F0FBF8A04623208F
:1076200043A9002500FB081B05E0232D3CBF05F8FE
:107630000B006D1C761C384602F024F9864206D2F7
:10764000F05D0D2802BFF11949780A29EDD105F83E
:107650000B40B61C08F10108B8F1080FDFD3002772
:10766000DFF834880AEB87056E69304602F00AF9C4
:10767000232143AA01FB072B02463146584602F05C
:10768000CFF800286ED1686902F0FCF8064604E0E5
:10769000202818BF3D2861D1761C00F0C6FA86422A
:1076A0005CD216F80B00A0F130010A29F0D2302884
:1076B00001D1062F52D15E440022F9B23046FFF7C5
:1076C000B3FE00284AD0F9B23046FFF7C5FD2FB906
:1076D000B8F9100000F098FA43A83CE0012F08D157
:1076E000B8F912000A2190FBF1F24BA80FF6000145
:1076F0001FE0022F06D1D8F8180000F079FA0DF536
:10770000A97028E0032F05D1D8F81C0000F06AFA10
:107710005DA81FE0042F05D1B8F9140000F06EFA3F
:1077200066A818E0052F06D100F074FA6EA80FF2D3
:10773000F871C01C0FE0062F07D1FCF705FD0246CB
:107740000FF2F4710DF5EF7005E0072F11D100F085
:1077500044FA80A8401CFEF771FF0AE000F065FAC9
:1077600000F05EFA6C6B204602F08CF800F069FACB
:1077700001247F1C082FFFF475AF002C02BFDFF837
:107780002007007800283CD0FE22002103A8FEF745
:107790004BFF0027232043A900FB071103A802F099
:1077A0008CF80AEB8700416D03A802F086F87F1C75
:1077B000082FEFD303A802F065F80246BDF80000D9
:1077C00009EB4010FF2A80F81C2400F21C4094BFF3
:1077D0000021110A417001980299401A00F50070C9
:1077E000411200EB91508012012100F80A1003A809
:1077F00002F048F80246019803A902F00AF800F0E6
:107800005DFA68E00FF24C7500AA0DF102012846FE
:10781000FFF7A8FE010009F21644DFF89C861FD08E
:10782000FE2203A801F0F5FF4FF41852002148464C
:10783000FEF7FAFE0C22294609F5846001F0E9FF03
:10784000FE2203A909F5006001F0E3FF667503203D
:1078500089F83A04C4F82080FE2089F83C0404E04A
:107860004FF418524846FEF7DFFE02980C223946C4
:1078700001F0CFFF0FF6E80706223946484601F02F
:10788000C8FF0622394609F5007001F0C2FF002743
:107890000AEB8705D5F834B000F0C7F900F02DF8F1
:1078A000686B01F0EFFFD5F854B0861900F0BDF910
:1078B00000F023F8686D01F0E5FF86197F1C082FA2
:1078C000E6D3002089F80B04C9F816840220207141
:1078D000A67100F01CFA42F60C00002240F80920C4
:1078E00000EB09010020CA760A774A7688600861B1
:1078F000C8600DF5097DBDE8F08F024606EB090072
:10790000594600F5C06001F084BF2DE9F04F89466B
:10791000ADF50B7D0546DFF89845DFF89085B9F5A4
:10792000805F07D100F084F9002816D000F085F9B7
:1079300040460EE0B9F5205F10D108F500764FF40F
:107940000072314601F06CFF002806D000F075F996
:10795000304601F05EFF0120207038E1B9F5804F1C
:1079600023D108F2004800F063F90028F5D000F0B8
:1079700064F9404601F04DFF012060704FF010089F
:107980000FF250560C22294600A801F042FF0B22AC
:10799000314600A801F044FF10B9A87E208216E10C
:1079A0002035B8F10108EDD111E1A9F50047B7F58F
:1079B000005FF9D809EB0800A0F5F4464FF4007217
:1079C0003146284601F02CFF20B100F036F9304650
:1079D00001F01FFFA9F5FC4004EB9029780A218AE9
:1079E000801C884240F0F08000264FF48C72002109
:1079F00045A8FEF719FEDFF8BC7400F01EF9384602
:107A000001F007FF3546232045A94FF0000A00FB8F
:107A1000051B07E0BAF1230F3CBF0AF80B000AF17F
:107A2000010A761C384601F02DFF864206D2F05D31
:107A30000D2802BFF11949780A29EBD100200AF874
:107A40000B00B61C6D1C082DDDD30027DFF8485451
:107A500004EB8706D6F814A0504601F013FF23214B
:107A600045AA01FB072B02465146584601F0D8FEB5
:107A7000002840F09780706901F004FF064600E09E
:107A8000761C00F0D2F8864224D216F80B0001468C
:107A900030380A281AD2302901D1062F1AD15E4473
:107AA0000122F9B23046FFF7BFFC002812D0F9B22C
:107AB0003046FFF7D1FB00F0B8F800F0B1F857B945
:107AC000B5F9100000F0A0F845A83FE0202918BF44
:107AD0003D29D5D07DE0012F08D1B5F912000A214A
:107AE00090FBF1F24DA80FF208411DE0022F05D1E5
:107AF000A86900F07DF80DF5AD7027E0032F04D1E3
:107B0000E86900F06FF85FA81FE0042F05D1B5F910
:107B1000140000F073F868A818E0052F06D100F0F3
:107B200079F870A80FF20041C01C0FE0062F07D1B2
:107B3000FCF70AFB02460FF200410DF5F37005E079
:107B4000072F05D100F049F882A8401CFEF776FD0A
:107B50007F1C082FFFF47CAFFE22002105A8FEF752
:107B600063FD0027232045A900FB071105A801F0AC
:107B7000A4FE04EB8700416D05A801F09EFE7F1C6A
:107B8000082FEFD305A801F07DFE0246208A08EBFE
:107B90004010FF2A80F8DC2300F5777094BF0021A5
:107BA000110A06E0746B204601F06CFE00F049F803
:107BB0000FE041704FF4007205A908F5C06001F0B4
:107BC00028FE0120607000E0012089F8010000F02B
:107BD00075F80DF50B7DBDE8F08FB2480FF26831F6
:107BE000026870476421B0FBF1F20FF22031704758
:107BF0006421B0FBF1F20FF2043170470A2190FBCF
:107C0000F1F20FF2183170470A2190FBF1F20FF2F6
:107C1000D0217047A14800680A21B0FBF1F27047FB
:107C2000024600215846FEF7FFBC584601F02ABE26
:107C30004FF40072414601F0F3BD4FF40072294643
:107C4000704702462146584601F0E3BD38B5044668
:107C50000D46FFF7FFFA25B94FF400720FF200311D
:107C600021E09249B5F5805F08BF4FF400721AD049
:107C7000B5F5205F04D14FF4007201F5007112E0F8
:107C8000B5F5804F04D14FF4007201F580610AE030
:107C9000A5F50040B0F5005F4FF4007208D805F17B
:107CA000006101F58C412046BDE8384001F0B1BDCE
:107CB0002046BDE838400021FEF7B6BCF8B501F01B
:107CC000E1FB00207A49425CD2B1774D0022425458
:107CD0008402281901F011FE74482618002736F88E
:107CE000021B3819281801F0F7FD042803D001F011
:107CF000D3FB0420F2BDBF1CB7F5806FEFD302E0C9
:107D0000401C1028DFD301F0C7FB0020F2BD70B586
:107D1000664C01F0B7FB644E002506EB852001F0B0
:107D2000ECFD6D1C092DF8DB002534F8021B7019E1
:107D300001F0D2FD042801D0042070BDAD1CADB20D
:107D4000B5F5185FF1DB01F0A7FB002070BD2DE950
:107D5000F04142F61804554D584F6619327A2AB947
:107D6000400238604802786001203072307A012881
:107D700031D1605978B905F5185839684046FFF790
:107D800065FF40229821404601F0CCFD4FF4E070A1
:107D9000605140200CE0B86840194022982100F55D
:107DA000185001F0BFFD605940386051B86840304C
:107DB000B8604021012001F060FE3021012001F077
:107DC000E6FD3868403038607868403878603C4874
:107DD000816840398160786838B96051B86038602E
:107DE00003213848017000203072BDE8F0812DE990
:107DF000F04142F61C042D4D334F62596619403252
:107E000033792BB940023860480278600120307124
:107E1000307901282FD100202C490AE05B1903F5A5
:107E2000185310F801C083F800C0401C63595B1C54
:107E3000635163599342F1D3DFF894803968B8F8FD
:107E400000007A684118101A78603960C00507D1BF
:107E500000206051A1F5007105F51850FFF755FDA0
:107E60001748B8F800208168891A816002204FF411
:107E7000405101F09DFD786800281EBF1148007830
:107E8000042806D100206051012101F05EFF00208E
:107E90003071BDE8F0810000800200203404002031
:107EA000280400203004002000C0000864040020E2
:107EB000E8010020A02C0020188DDD40803000203B
:107EC00070300020E42F00208C300020842F002010
:107ED000E62F0020434F4E46494720205458540077
:107EE000545F5374616E6462793D25640000000044
:107EF000545F576F726B3D256400000057616974D1
:107F00005F54696D653D25640000000049646C653F
:107F10005F54696D653D256400000000545F537433
:107F200065703D25640000005475726E5F4F666693
:107F30005F763D256400000054656D7053686F776F
:107F4000466C61673D2564005A65726F505F4164FD
:107F50003D2564004C4F474F494E2020424D500074
:107F6000EB3C904D53444F53352E30000201080036
:107F70000200025000F80C000100010000000000A7
:107F800000000000000029A298E46C4E4F204E41F2
:107F90004D4520202020464154313220202033C935
:107FA0008ED1BCF07B8ED9B800208EC0FCBD007C89
:107FB000384E247D248BC199E83C01721C83EB3A36
:107FC00066A11C7C26663B07268A57FC750680CA7C
:107FD0000288560280C31073EB33C98A461098F7A3
:107FE000661603461C13561E03460E13D18B7611DC
:107FF000608946FC8956FEB82000F7E68B5E0B03CD
:10800000C348F7F30146FC114EFE61BF0000E8E6ED
:1080100000723926382D741760B10BBEA17DF3A60E
:108020006174324E740983C7203BFB72E6EBDCA01F
:10803000FB7DB47D8BF0AC9840740C487413B40E87
:10804000BB0700CD10EBEFA0FD7DEBE6A0FC7DEBC8
:10805000E1CD16CD19268B551A52B001BB0000E8B0
:108060003B0072E85B8A5624BE0B7C8BFCC746F053
:108070003D7DC746F4297D8CD9894EF2894EF6C6DE
:1080800006967DCBEA030000200FB6C8668B46F843
:108090006603461C668BD066C1EA10EB5E0FB6C85D
:1080A0004A4A8A460D32E4F7E20346FC1356FEEBD9
:1080B0004A525006536A016A10918B4618969233C1
:1080C000D2F7F691F7F64287CAF7761A8AF28AE86B
:1080D000C0CC020ACCB80102807E020E7504B44204
:1080E0008BF48A5624CD136161720B4075014203F3
:1080F0005E0B497506F8C341BB000060666A00EB81
:10810000B04E544C44522020202020200D0A5265AD
:108110006D6F7665206469736B73206F72206F7466
:10812000686572206D656469612EFF0D0A4469738C
:108130006B206572726F72FF0D0A50726573732047
:10814000616E79206B657920746F2072657374613C
:1081500072740D0A00000000000000ACCBD855AAD4
:10816000F8FFFFFFFFFF000062F30F2262F31F42E0
:10817000401810F0030308D0C91A1FD3DB0748BF0B
:1081800000F8012D28BF20F8022D130030B414464A
:108190001546103928BF20E93C00FAD8490728BF06
:1081A00020E90C0048BF40F8042D890028BF20F8C2
:1081B000022D48BF00F8012D30BC7047C91818BF08
:1081C00000F8012DCB0728BF00F8012D7047026889
:1081D000531C0360117070472DE9F04FA1B0824627
:1081E00002AE002017461D46029170620DF1440850
:1081F0000AE017F8011B0298D0470290002800F00F
:10820000DA82706A401C7062387808B9706AD4E209
:108210002528EED10020F06030617061B061F0611E
:10822000306201E040F0010017F8011F2029F9D069
:1082300023290DD02B2904D02D2906D030290AD08E
:108240000CE040F0020080B2EEE740F00400FAE7F4
:1082500040F00800F7E740F01000F4E72A290DD1BC
:1082600029680A1D2A600968F162002904D549427B
:1082700040F00400F16280B27F1C13E00021F16243
:108280000BE0F16A6FF00043994205D001EB8103E6
:1082900002EB43013039F1627F1C3A78A2F13001E0
:1082A0000A29EED339782E2903D04FF0FF31B1627D
:1082B0001EE017F8011F2A2906D129680A1D2A6025
:1082C0007F1C0968B16213E00021B1620BE0B16A62
:1082D0006FF00043994205D001EB810302EB4301AB
:1082E0003039B1627F1C3A78A2F130010A29EED30D
:1082F00030860FF66040397801F06AFD08B117F852
:10830000010B8DF83A009DF83A00682802BF3978D1
:108310006829622005D06C2804BF38786C2803D106
:1083200071208DF83A007F1C11A8B0603978B1F146
:10833000250029D01C3800F0C080001F022840F220
:10834000BC80133800F0E480093800F0B680801E4D
:1083500000F07781401E00F02081401E022840F28C
:10836000AC80001F00F01981401F7BD0401E00F040
:10837000CF80401E22D0C01E0BD0801E00F0C880CF
:10838000C01E00F0C58064E1F068411CF160252149
:1083900069E12868011D29600068B26A7060002ADE
:1083A00002D501F06FFA07E0002101F01DFD002861
:1083B0001ABF7168401AB06A306156E12868011D21
:1083C000296000210068CDE900014FF03C0E11A8A2
:1083D0007060DDE9000111B908B9B26ACAB10206DC
:1083E000120FA0EB02123032AEF10103D2B29E4660
:1083F0003A2AA8BF2732000903F8082040EA017092
:10840000090908BF002804D0726811AB73449A426E
:10841000E5D311A971447160CEF13C00B16A3061BD
:10842000884207DA081AB0614FF6EF71308E0840C3
:1084300030861AE1002940F1188196F8301001F0D9
:108440001401102940F01181F16AF268891AB269A9
:10845000891AA1EB000EBEF1010FC0F20681C6F829
:1084600018E002E19DF83A00622818D0682806D08A
:108470006A280BD06C2819D0712807D016E028681C
:10848000011D29600068716A0180EEE02A68101DF4
:1084900028601268706AC117C2E90001E5E0286827
:1084A000011D29600068716A0170DEE02868011D05
:1084B00029600068716A0160D7E02868C01D20F05B
:1084C0000700286000F108022A60D0E90023CDE906
:1084D0000023002B04D5F068421CF2602D220DE031
:1084E000308E820704D5F068421CF2602B2205E032
:1084F000C00705D5F068421CF260202200F8082071
:10850000F06811AA8018706000A800F0E3F9ACE0F0
:108510009DF83A006C2808BF2A6811D0712808BF5E
:108520002A6802D02A686A280AD1D21D22F00702DE
:108530002A60144604F108022A60D4E9002303E00B
:10854000131D2B6000231268CDE90023682808BFA3
:1085500092B207D0622808BFD2B203D0742818BFE5
:108560007A2802D10023CDE9002396F830000007D5
:108570005FD5DDE90023002B08BF002A59D041F068
:108580002000782855D1F068302200F80820401CDF
:10859000421CF26000F808104BE09DF83A00622897
:1085A0000CD0682810D06A281AD06C2823D07128E3
:1085B00016D074281FD07A280CD01CE02868021D21
:1085C0002A6090F900201AE02868021D2A60B0F99C
:1085D000002014E02868021D2A60002302680FE0D2
:1085E0002868C01D20F00700286000F108022A60FA
:1085F000D0E9002304E02868021D2A600268D3172E
:10860000CDE90023002B04DAF068421CF2602D2231
:108610000DE0308E820704D5F068421CF2602B22F8
:1086200005E0C00705D5F068421CF260202200F882
:108630000820F06811AA8018706000A800F0C0F847
:1086400013E0F068411CF16029680A1D2A6009687E
:1086500009E0F068421CF260252200F8082021B1F0
:10866000F068421CF26000F80810F06AF168401AE5
:10867000B169401A3169401AF169401A7169401AAA
:10868000316AA0EB010996F830007F1C400710D436
:1086900020208DF84000002409E0012310AA00A941
:1086A000504600F040FC002840F08580641C4C459A
:1086B000F3DBF4680DF1440B0AE01BF8011B029890
:1086C000D0470290002876D0706A401C7062641E09
:1086D000002CF2D130208DF840004FF0000BB4692F
:1086E00009E0012310AA00A9504600F01CFC002854
:1086F00061D10BF1010BA345F3DB3469D6F804B06B
:108700000AE01BF8011B0298D0470290002852D0C3
:10871000706A401C7062641E002CF2D130208DF80B
:1087200040004FF0000BF46909E0012310AA00A9F2
:10873000504600F0F8FB00283DD10BF1010BA3459A
:10874000F3DB30697168746900EB010B09E01BF819
:10875000011B0298D047029068B3706A401C706297
:10876000641E002CF3D130208DF840004FF0000B38
:10877000346A08E0012310AA00A9504600F0D3FB98
:10878000C8B90BF1010BA345F4DB96F830004007A4
:108790007FF53AAD20208DF84000002400E0641CF5
:1087A0004C45BFF631AD012310AA00A9504600F098
:1087B000BAFB0028F3D04FF0FF3021B0BDE8F08FB6
:1087C0002DE9FA47064682B035690A466F2A08BF86
:1087D000082705D041F02000782814BF0A27102769
:1087E000D6E900013C2480468946642A18BF692ADC
:1087F00005D1002903DAD8F1000869EB4909B9F17C
:10880000000F08BFB8F1000F0CD1306B50B9082F22
:108810003BD196F83800000737D530203B2485F847
:108820003B0032E0CDE90089FB17404649463A4615
:1088300001F006FBB846A8FB0023DDE90089A8EBA0
:1088400002023032A4F1010AD2B254463A2A03DBC2
:108850009DF80830513B9A180AF8052080465FEAD7
:10886000010908BFB8F1000F03D0F0686119884210
:10887000D8D3082F09D196F83800000705D5605DD8
:10888000302802D0641E30206055C4F13C00B06135
:108890006119F160316B884207DA081A30624FF6CD
:1088A000EF71308F0840308710E000290ED596F820
:1088B000381001F01401102908D1716B7269891AFE
:1088C000326A891A081A0128A8BF306204B0BDE8CC
:1088D000F08700002DE9F24F04468EB0D4E9000184
:1088E000CDE9020104AE9DF8380040F02000009070
:1088F00061280AD0206B002848BF062004D404BF9A
:108900000098672801D1012020636168C1F30A50F3
:1089100040F2FF7290421CD1080304BF2068002877
:1089200009D10320A0619DF8380061381A2836D398
:108930000FF2346108E00320A0619DF8380061382F
:108940001A2829D30FF21861E0680322FEF736FCDB
:10895000B5E1012816DA204601F0E9FA012811DB19
:10896000002700200099612920D1E168302201F818
:10897000012B4A1CE2609DF83820612A0CBF782246
:1089800058220FE0626840F2FE3161F31E52471A2E
:1089900062604FF0FF30E5E70FF2C051D4E70FF20D
:1089A000C451D1E70A706169891C616110B9002561
:1089B00000277BE10098612840F09680206B00281A
:1089C0004CBF2125451CDDE902012DB26E1CD4E906
:1089D00000890022002301F0CBFA3ABF89F0004061
:1089E000CDE90280CDE902893F1F8DF810200DF1FD
:1089F000110801E000F20708012E32DBDDE9020177
:108A00000022002301F0CCFA2BD21C2102A801F095
:108A1000DFFADDE9020101F061FBF61F8146012E5C
:108A200009DB01F087FB02460B46DDE9020101F09C
:108A300099FBCDE9020108F20700072105E009F0E2
:108A40000F0200F8012D4FEA2919B9F1010F01DBDE
:108A5000491EF4D5491E5CBF002200F8012DF9D54E
:108A6000C8E70DF11100A8EB00010DF11106A942B4
:108A7000B8BF0D462DB228002FD4884206DA04A9CB
:108A8000411849780829A8BF0F2100DA002104AA5B
:108A9000821800E06D1E12F80139401E8B42F9D099
:108AA0000F2904D104A941184A78521C4A700028A1
:108AB00002D504AE6D1C3F1D2DB2681E0DD4811968
:108AC0000A783032D2B23A2A03DB9DF838303A3B8A
:108AD0009A1801F80129401EF2D5206B002840F1B8
:108AE000E580681E2063E1E0DDE902010022002349
:108AF00001F03EFA3CBF81F00041CDE902013FB2F6
:108B000047F2975078434849DFF820B190FBF1F7DE
:108B10003FB2C7F107069246012E19DBDDE9028953
:108B2000F00707D552465B464046494601F0DAFB5E
:108B30008046894676105046594652465B4601F0BB
:108B4000D1FB82468B46002EEAD1CDE9028921E095
:108B500076429046DFF8D89012E0F00707D55246EB
:108B60005B464046494601F0BDFB8046894676108B
:108B70005046594652465B4601F0B4FB82468B464E
:108B8000002EEAD1DDE9020142464B4601F07CFCB1
:108B9000CDE90201009866280CBF07F10A00062003
:108BA000216B4518142DA8BF132530208DF8100017
:108BB0000DF11106DFF87C90012D3DDBDDE90201AE
:108BC00001F0A2FA06F1080104220A23B0FBF3F334
:108BD00003EB8306A0EB4600303001F8010D0A20BC
:108BE000B3FBF0F000EB8006A3EB4603303301F853
:108BF000013D521EE9D1083D01F10806012DDBDBE4
:108C0000DDE9020101F080FA01F09EFA02460B460E
:108C1000DDE9020101F0A6FA00224B4601F062FBF9
:108C2000CDE90201CAE700BFA08601000000244090
:108C30000000F03F84D797410DF11100301A0DF17B
:108C4000110602E0401E7F1E761C31783029F9D0D3
:108C50000099662902D13FB2791C03E065290CBF57
:108C600001210021226B8D182DB2A842B8BF054604
:108C70002DB229001AD4814204DA885D3528A8BFB4
:108C8000392000DA30208A19521E00E06D1E12F8D9
:108C90000139491E8342F9D0392802D1885D401C30
:108CA0008855002902D5761E6D1C7F1C3FB29DF8A9
:108CB000381000972BB23246204600F003F80FB070
:108CC000BDE8F08F2DE9F043054685B01E46D5F886
:108CD000308089461746012E02DA01260FF28C27D2
:108CE00049F02000BDF93040662808BF641C17D049
:108CF000672840F0818014F1040FC0F2838044455E
:108D000080F2808095F83800641C000702D4464544
:108D1000B8BFB04624B2B8EB040848BF4FF0000813
:108D2000E868A96924B2012C25DA30234A1C0B54C7
:108D3000B8F1010F03DA95F83810090702D52E2192
:108D40001154521CAA6118EB040FB8BFC8F10004FB
:108D500024B26142A0446962B045B8BF464636B20B
:108D6000EE613246AB6939461818FEF727FAA8EBD0
:108D70000600A862C0E00818A64218DA3246394652
:108D8000FEF71CFAA9697118A961A01B6862B8F105
:108D9000010F03DA95F83800000705D5E8682E22A0
:108DA0000A54E869401CE861C5F82880A4E022461E
:108DB0003946FEF703FAA8692018361BB8F1010FEF
:108DC00003DA95F83810090703D5E9682E224254D2
:108DD000401C36B2A861B045B8BF4646EB6836B213
:108DE0003246E119C018FEF7E9F9A8693018A86100
:108DF000A8EB060068627FE0B9F1610F16D14FF071
:108E0000700918E0464504DA95F83810090758BF8C
:108E1000B046B8F1010848BF4FF00008B9F1670F3C
:108E200014BF4FF045094FF0650904E0B9F1410F57
:108E300008BF4FF05009A969E86817F8013B0B54C7
:108E40004A1CB8F1010F05DA95F83810090758BF28
:108E5000AA6117D52E211154531CAB61B8F1010F33
:108E600010DB761E36B2B045B8BF464636B2324643
:108E700039461818FEF7A2F9A8693018A861A8EBBE
:108E800006006862A869E9684718200007F8019B96
:108E900003D42B2007F8010B03E02D2107F8011B59
:108EA000644200260DF1080808E00A2200A801F03B
:108EB0000EFC019808F8010B761C009C21B20129D8
:108EC000F3DA022E06DA49F02000652804BF3020CC
:108ED00007F8010B4EB9302007F8010B07E0761EAA
:108EE00002A8305C303007F8010B012EF7DAA869D0
:108EF000E9684018381AE86195F8380000F0140065
:108F000010280DD16869A9690818696A0818E96903
:108F10000818A96A0818696B8842BCBF081A286239
:108F200005B0BDE8F083F8B504460D4616461F4669
:108F3000002004E0E86A401CE8627F1E002047B180
:108F400016F8011BA868A047A8600028F2D14FF0CE
:108F5000FF30F2BD686A6C747A4C00006E616E007E
:108F60004E414E00696E6600494E460030000000DA
:108F7000002800E0401EFDD1704710B586B0FDF717
:108F800001FCC020ADF8000000A903208DF802000C
:108F90001C208DF80300694800F012F9684C00208D
:108FA000ADF8080001A94BF6FF70ADF80A003C20AF
:108FB000ADF80C004FF48060ADF80E004FF4804027
:108FC000ADF810005F480190204601F087FB0121B9
:108FD000204601F0E3FB06B010BD584A012903D139
:108FE0000146104600F050B919B90146104600F08C
:108FF0004DB9704780B50121082000F0EBF9C02081
:10900000ADF8000000A914208DF8030003208DF8AE
:1090100002004A4800F0D4F800F00EF800F057F8CB
:1090200000F058F800F051F8002100F051F800F07D
:109030004CF800F001F801BD00214020CDE780B5DB
:10904000FFF7FAFF002100F043F800F03EF800F0CF
:1090500041F800F03AF800F03AF800F036F8FFF77F
:10906000EBFFBDE80240022082E738B50446082540
:1090700008E000F02DF800F028F800F02BF800F0E0
:1090800024F864002846451EC0B230B1FFF7D4FF73
:1090900020064CBF01210021EBE7FFF7CDFF00F0D8
:1090A00016F8FF2400F011F800F043F848B900F07A
:1090B00011F800F00AF8FFF7BFFF00F006F80120F2
:1090C00032BD641EEED1002032BD022050E70121E6
:1090D000802082E7012140207FE770B50446082503
:1090E0000026FFF7F4FF0DE0FFF7A6FFFFF7EDFF07
:1090F000FFF7F0FFFFF7E9FF760000F01AF808B17C
:1091000046F001062846451EC0B20028ECD1FFF704
:1091100093FF002C0CBF01210021FFF7D9FFFFF7BF
:10912000D4FFFFF7D7FFFFF7D0FFFFF785FFF0B2BF
:1091300070BD8021014800F0A0B80000000C014083
:1091400000540040A086010070B504460D46164646
:10915000FFF750FF7000C0B201E014F8010BFFF7F9
:1091600084FF2846451EC0B20028F6D1BDE87040F5
:1091700065E7F8B504460D4616461F46FFF73AFF69
:109180007600F0B2FFF771FF3846FFF76EFFFFF78A
:1091900031FF46F00100C0B2FFF767FF03E0FFF7C1
:1091A0009CFF04F8010B2846451E28B1EDB2002DA6
:1091B0000CBF00200120F2E7BDE8F1403FE70000CE
:1091C0002DE9F041CC78002204F00F03E40644BFFF
:1091D0008C7823430C8801250F26E7B217B3D0F80B
:1091E00000C005FA02F7BE460EEA0408F04514D1A5
:1091F0004FEA820E06FA0EF82CEA080C03FA0EFE6D
:109200004EEA0C0C91F803E0BEF1280F08BF47614D
:1092100003D0BEF1480F08BF0761521C082AE0D3F3
:10922000C0F800C0FF2C26DDD0F804C0002202F1F7
:10923000080705FA07F7BE460EEA0408F04515D1FF
:109240004FEA820E06FA0EF82CEA080C03FA0EFE1C
:109250004EEA0C0C91F803E0BEF1280F08BF4761FD
:1092600091F803E0BEF1480F08BF0761521C082ABD
:10927000DDD3C0F804C0BDE8F08180680022084258
:1092800018BF012210467047016170474161704765
:1092900070B5144A00284CBF94691468460D83B217
:1092A0003601B34000F44016C0F30345B6F5401F45
:1092B00006D1156825F0706524F07064156008E02B
:1092C000C60243BF032606FA05F5AC439C4344F0AF
:1092D000706401B11C43002801D5946170BD146015
:1092E00070BD0000040001400022FEF741BF0000F5
:1092F0004E484F4A016841F0010101604168114048
:1093000041604C4A016811400160016821F48021EC
:109310000160416821F4FE0141604FF41F0181604A
:1093200070474549086070474549086070474349A0
:109330000A68920840EA8200086070473F48006867
:1093400000F00C0070473F490860704730B53B495A
:109350003D4B0A6802F00C02082A0ED10A680C681C
:109360003A4DC2F38342921C5543E40302D50C6884
:10937000A40301D52B4600E053430360344A0B6835
:109380000468C3F303139B5C24FA03F343600B6884
:109390004468C3F302239B5C24FA03F383600B68E5
:1093A0004468C3F3C2239B5C24FA03F3C3600968D7
:1093B000C368C1F381318918097CB3FBF1F1016104
:1093C00030BD244A0029116814BF084321EA000077
:1093D00010607047204A0029116814BF084321EA31
:1093E0000000106070471D4A0029116814BF08432F
:1093F00021EA000010607047194A0029116814BF63
:10940000084321EA0000106070474109074A01291A
:1094100008BF116803D002290CBF116A516A00F01D
:109420001F0021FA00F000F0010070470010024018
:109430000000FFF8FFFFF6FE000042420410024069
:1094400060004242D800424200127A0000093D000A
:109450000004002014100240181002401C100240AA
:109460000C100240DFF8D4100A6802F0380206E05F
:10947000DFF8C8100A6822F010020A600A68104378
:1094800008607047FFE7DFF8B800DFF8B810016048
:10949000DFF8B41001607047FFE7DFF8B000016843
:1094A00041F080010160704738B5054600F015F8BD
:1094B00004280DD1DFF89440206840F002002060BD
:1094C000656000F006F8216841F6FD7211402160E8
:1094D00032BD206840F0400020604FF4302039E079
:1094E00070B504460D4600F011F804280CD1174E53
:1094F000306840F001003060258000F007F83168E6
:1095000041F6FE721140316070BD08804FF400508A
:1095100020E00F49086070470D490A680420D2070F
:1095200001D5012070470A68520701D50220704713
:109530000968C90648BF03207047000000200240A8
:109540000420024023016745AB89EFCD1020024083
:109550000C20024010B5FFE70446FFF7DDFF03E0F3
:109560002CB1FFF7D9FF641E0128F9D004B90520FA
:1095700010BD00001B4908431B490860704770B5C7
:109580000378C4781A460121ECB1174B1B68447864
:1095900003F4E063C3F5E0631B0AC3F10405AC40C8
:1095A00085780F2626FA03F32B4023430F4C1B012B
:1095B000135500780E4B420900F01F0001FA00F02D
:1095C00043F8220070BD50090A4A03F01F03994076
:1095D00042F8201070BD084A11400843074908604E
:1095E000704700000000FA050CED00E000E400E028
:1095F00000E100E080E100E080FFFF1F08ED00E0F7
:1096000001684FF6FE721140016000210160416067
:109610008160C160334A344990421DD0334A904240
:1096200021D0334A904225D0324A904229D0324A42
:1096300090422DD0314A904203D1086840F4700026
:1096400029E02F4A904203D1086840F0706022E080
:109650002C4A2D49904203D1086840F00F001AE0CF
:109660002A4A904203D1086840F0F00013E0284AEB
:10967000904203D1086840F470600CE0254A9042A3
:1096800003D1086840F4704005E0234A904203D1BA
:10969000086840F470200860704702688B686FF3B8
:1096A0000E121A430B6A1A430B691A434B691A4389
:1096B0008B691A43CB691A434B6A1A438B6A1A4364
:1096C0000260CA6842600A6882604968C160704787
:1096D0000029016812BF41F001014FF6FE721140EE
:1096E0000160704708000240040002401C00024074
:1096F0003000024044000240580002406C0002402A
:109700008000024008040240040402401C0402409D
:1097100030040240440402405804024030B504883A
:10972000DFF8C030DFF8D420984218BF90420ED046
:10973000B0F1804F1CBFDFF8B050A84207D0DFF86F
:10974000AC50A8421CBFDFF8A850A84204D14FF685
:109750008F752C404D882C43DFF89850A8421CBFD1
:10976000DFF89450A84204D04FF6FF452C40CD8836
:109770002C43048098428C8884850C88048518BF0B
:1097800090420AD0DFF8782090421FBFDFF87420A3
:109790009042DFF87420904201D1097A01860121BC
:1097A000818230BD0029018812BF41F001014FF6CE
:1097B000FE72114001807047002A828914BF114354
:1097C00022EA0101818170470029018812BF41F01E
:1097D00080014FF67F7211400180704700BFC9437E
:1097E00001827047002C0140000400400008004046
:1097F000000C004000100040001400400034014004
:10980000004001400044014000480140002200F0B7
:10981000CFBF10B50446FDF7D1FC204610BD0000B7
:109820000300002013F0030F09D0521E22BF13F8CB
:10983000010B11F801CBB0EB0C00F3D07047121FF5
:1098400022BF53F8040B51F804CB6045F7D0121D2A
:109850000AD200BA9CFA8CFCB0EB0C0038BF6FF057
:10986000000088BF01207047521E22BF13F8010B71
:1098700011F801CBB0EB0C00F6D0521C08BF10461B
:109880007047000000F10103810704D010F8011BAC
:1098900089B18107FAD10268B2F10131914311F027
:1098A000803F04BF50F8042FF6E710F8011B11B1F8
:1098B00010F8011BFBE7C01A7047024600E0521C7B
:1098C0001378002BFBD111F8013B137012F8013B08
:1098D000002BF8D17047000038B504460D461048FB
:1098E000FFF738FE05281CBF3420FFF712FE29467B
:1098F0002046BDE83440FFF7F3BD10B50446A0058F
:109900000CD10748FFF726FE05281CBF3420FFF7BF
:1099100000FE2046BDE81040FFF7C6BD10BD0000A8
:10992000A086010010B5490001F18041521C01F5EB
:10993000C041521009E010F8013B10F8014B43EA16
:10994000042321F8023B891C521EF4D110BD4900AA
:1099500001F18041521C01F5C041521004E051F860
:10996000043B20F8023B521EF9D170474FF6F871C4
:109970000840DFF890110860704710B5DFF88821C3
:1099800052F8203048F68F142340194324E010B5D4
:10999000DFF8742152F8203048F6BF742340CC061B
:1099A00048BF83F01003890648BF83F020030FE00F
:1099B00010B5DFF8542152F820304BF68F74234055
:1099C000CC0448BF83F48053890448BF83F4005318
:1099D00043F4004141F0800142F8201010BDDFF84F
:1099E000281151F820204BF68F731A4082F4405210
:1099F00042F4004209E0DFF8101151F8202048F647
:109A00008F631A4042F40042FFE742F0800241F8BF
:109A100020207047DFF8F01051F8202052040AD5BA
:109A200051F8202048F68F731A4042F4404242F029
:109A3000800241F820207047334951F82020520617
:109A40000AD551F8202048F68F731A4042F400429C
:109A500042F0C00241F82020704738E0294A1268DD
:109A600092B202EBC000294A37E03BE02549096881
:109A700089B201EBC00025493AE0224A126892B24D
:109A800002EBC000224A2AE01E4A126892B202EBA0
:109A9000C000204A02EB40003F2909DB4A091F238E
:109AA000194208BF521E1204910941F4004105E019
:109AB0004A08C90748BF521C120491090160704747
:109AC0001049096889B201EBC000124914E00D4A3F
:109AD000126892B202EBC0000F4A4908490042F8EE
